:020000040800F2
:1000000078560020FD020008B31D0008311D0008CD
:10001000B11D00080D0E000831220008000000008C
:100020000000000000000000000000003D02000889
:10003000CD0E000800000000990200081D1F0008F6
:100040001703000817030008170300081703000828
:100050001703000817030008170300081703000818
:100060001703000817030008170300081703000808
:10007000110E0008170300081703000817030008F3
:10008000170300081D0E00081703000800000000F9
:10009000000000000000000000000000170300083E
:1000A00017030008170300081703000817030008C8
:1000B00017030008170300081703000817030008B8
:1000C00017030008170300081703000817030008A8
:1000D00017030008170300081703000800000000BA
:1000E00017030008170300081703000800000000AA
:1000F00000000000000000000000000017030008DE
:100100000000000017030008170300081703000889
:1001100000000000000000000000000000000000DF
:100120001703000817030008170300081703000847
:10013000170300080000000000000000000000009D
:10014000000000000000000000000000170300088D
:100150001703000817030008170300081703000817
:10016000170300081703000800000000000000004B
:10017000000000000000000000000000000000007F
:10018000000000001703000800000000000000004D
:100190001703000800F002F800F040F80AA090E809
:1001A000000C82448344AAF10107DA4501D100F032
:1001B00035F8AFF2090EBAE80F0013F0010F18BFBF
:1001C000FB1A43F001031847302F0000502F0000A6
:1001D000103A24BF78C878C1FAD8520724BF30C873
:1001E00030C144BF04680C60704700000023002445
:1001F00000250026103A28BF78C1FBD8520728BF37
:1002000030C148BF0B6070471FB502F037FF9DE853
:10021000030000F0B1F91FBD10B510BD00F030FAB9
:100220001146FFF7F1FF02F015F800F04EFA03B4A3
:10023000FFF7F2FF03BC00F07FFA00002C4B1968B7
:100240000868B0E8F04F80F30988BFF36F8F4FF074
:10025000000080F311887047000000000848006823
:10026000006880F308884FF0000080F3148862B6BD
:1002700061B6BFF34F8FBFF36F8F00DF00BF00BFCA
:1002800008ED00E0DFF80C00016841F47001016046
:10029000704700BF88ED00E0EFF30980BFF36F8F78
:1002A000134B1A681EF0100F08BF20ED108A20E9CA
:1002B000F04F106009B44FF0500080F31188BFF385
:1002C0004F8FBFF36F8F02F0AFFB4FF0000080F352
:1002D000118809BC19680868B0E8F04F1EF0100FCB
:1002E00008BFB0EC108A80F30988BFF36F8F7047A6
:1002F00018000020EFF30580704700000948804790
:1003000009480047FEE7FEE7FEE7FEE7FEE7FEE7F7
:10031000FEE7FEE7FEE7FEE704480549054A064B0F
:1003200070470000C91F00089501000878410020AF
:1003300078560020784600207846002070B50646A2
:1003400000F0FEF8056806F10B0020F00704B44247
:100350009CBF002070BD2B466A68BAB11068A042ED
:1003600010D304F1080188423CBF5068586007D39D
:100370005168101941601168091B016058601460D0
:10038000101D70BD13465268002AE7D12146284649
:1003900000F0DEF80028DED170BD53EA020C00F058
:1003A00069802DE9F04B4FF00006002B1FBFB3FA18
:1003B00083F503FA05F424FA05F65E4012BF1643EE
:1003C000B2FA82F502FA05F4C5F120051EBF22FA41
:1003D00005FC44EA0C04203556EA044C4FEA144468
:1003E00018BF641C4FF000084FF00009904271EBF9
:1003F000030C39D3002919BFB1FA81F701FA07F6C6
:10040000B0FA80F700FA07F6C7F120071EBF20FAFE
:1004100007FC46EA0C062037B6FBF4FCA7EB050701
:10042000103F07F01F0BCBF120060CFA0BFB2CFA48
:1004300006F644BFB3460026202FA4BF5E464FF009
:10044000000B5BEA060C08BF4FF0010B19EB0B0920
:10045000ABFB027C48EB0608C01B06FB02CC0BFB87
:1004600003CC71EB0C01C1E70B46024641464846FE
:10047000BDE8F08B13B54FF000004FF00001AFF373
:100480000080BDE81C40704710B5203AC0F00B80DA
:10049000B1E81850203AA0E81850B1E81850A0E888
:1004A0001850BFF4F5AF5FEA027C24BFB1E81850E2
:1004B000A0E8185044BF18C918C0BDE810405FEA52
:1004C000827C24BF51F8043B40F8043B08BF7047CE
:1004D000D20728BF31F8023B48BF11F8012B28BFD3
:1004E00020F8023B48BF00F8012B70474FF0000294
:1004F00000B5134694469646203922BFA0E80C501A
:10050000A0E80C50B1F12001BFF4F7AF090728BFF4
:10051000A0E80C5048BF0CC05DF804EB890028BF70
:1005200040F8042B08BF704748BF20F8022B11F099
:10053000804F18BF00F8012B704770477047704715
:10054000004870471C410020704770477047704753
:1005500038B504460A4600206946AFF300800028FB
:1005600008BF38BD02460099204600F067F8012018
:1005700038BD012000F07CB8F8B5AFF30080054627
:1005800000200C46102000BF0646A819A0420DD935
:10059000324669460020AFF30080070008BF00F034
:1005A00067F80098A04218BF0546C419FFF7C8FFB6
:1005B00005600746F01D20F007004619284600F0A8
:1005C0000AF8B44208BFF8BDA21B31463868BDE83E
:1005D000F84000F033B800210160C0E90110704715
:1005E0001020704770B50446051FFFF7A9FF00688B
:1005F000002C14BF446870BD002C18BFAC423CBF37
:1006000020466468F8D301680A18AA4218BF4560FA
:1006100003D12A6805461144016028684119A142A6
:100620001CBF6C6070BD6168696021680844286007
:1006300070BD000000487047144100200346406828
:100640008C46002818BF88423CBF03464068F8D358
:1006500018681844884207D00CF1030020F0070006
:10066000001D411A521A0146081D0A60FFF7BABF61
:1006700010B500F039F8BDE8104000F02FB8704711
:100680007546FFF7D7FFAE4605006946534620F092
:100690000700854618B020B5FFF73EFEBDE82040B4
:1006A0004FF000064FF000074FF000084FF0000B2E
:1006B00021F00701AC46ACE8C009ACE8C009ACE8E1
:1006C000C009ACE8C0098D46704710B50446AFF3C9
:1006D00000802046BDE81040FFF7A9BD002801D0EA
:1006E00000F02AB87047000010B5012805D000219D
:1006F00003A000F027F8012010BD09A1F8E70000D1
:1007000053494752544D454D3A204F7574206F66FA
:100710002068656170206D656D6F72790000000062
:100720003A2048656170206D656D6F727920636F46
:10073000727275707465640001491820ABBEFEE7E3
:100740002600020070B505460C460A2000E06D1C2C
:1007500000F011F835B128780028F8D102E0641CC7
:1007600000F009F814B120780028F8D1BDE87040F5
:100770000A20AFF3008008B569468DF80000032019
:10078000ABBE08BD00231A461946AFF30080FCB586
:1007900004461D4616460F460020ADF80400E08AC8
:1007A000BDF8041088420BD9BDF8041033463A4610
:1007B0000095204600F06EF8BDF80400401CECE700
:1007C000FCBD00002DE9F041817E2B4D044601293E
:1007D00002D0022947D00AE000F040FF0146286815
:1007E00000F4E05045E0012000E0022048432349A6
:1007F0002268B0FBF1F01268002191622268411E6C
:1008000089B21268D1622168012709684F6102F03C
:1008100024FB0E4646EC100B9FED191B054653ECCE
:10082000112B51EC100B02F02BFB02F0E9FA401EE9
:1008300046EC105B9FED141B207653EC112B51EC12
:10084000100B02F01DFB02F0DBFA401E60766775AC
:100850002068A18B0122006801F010FCBDE8F04186
:10086000012000F0BBBC00F009FF0146286800F43D
:1008700060400028B9D1B6E70838024000350C00C6
:10088000EC51B81E85EBE13FEC51B81E85EBD13F32
:1008900001757047F0B5C48A059E8C4204D8B1FB3F
:1008A000F4F505FB141189B2047D4FF48075641CC6
:1008B000B5FBF4F7B2FBF7F2B5FBF4F7B5FBF4F4D4
:1008C000B3FBF7F3B0256B43C56801EB41011B0A8D
:1008D000B6FBF4F46B54C5684B1CC4EB0414EA5427
:1008E000C068891CC4F317144454F0BDF8B504461D
:1008F00000206075218921B9616891F835100129BE
:1009000001D00020F8BD8DF80000202767E0E068E6
:100910009DF8001000788840000601D5207E00E098
:10092000607E9DF80020216941F82200E0689DF872
:10093000001040788840000601D5207E00E0607EEF
:100940009DF80020216907EB82028850E0689DF83D
:10095000001080788840000601D5207E00E0607E8F
:100960009DF800202169402303EB82028850E06853
:100970009DF80010C0788840000601D5207E00E078
:10098000607E9DF800102269602303EB81015050C6
:10099000E0689DF8001000798840000601D5207EAF
:1009A00000E0607E9DF800202169802303EB820235
:1009B0008850E0689DF8001040798840000601D515
:1009C000207E00E0607E9DF800202169A02303EBDB
:1009D000820288509DF80000401C8DF800009DF8B0
:1009E0000000082893D30225A08B18B3042825D033
:1009F0002268082826D092F84120022AF4D020B399
:100A0000042826D02268082827D092F84120012AFD
:100A1000EAD128B3042827D00828206828D080F8F5
:100A20004150A08B38B3042828D0082829D00C289E
:100A30002DD12AE0226892F83E20DEE7226892F863
:100A40003F20DAE792F84020D7E7226892F83E206C
:100A5000DDE7226892F83F20D9E792F84020D6E7F8
:100A6000206880F83E50DCE7206880F83F50D8E7E7
:100A700080F84050D5E701214E0208E002214E02E5
:100A800005E003214FF4006601E004218E02236893
:100A900007EB81002F4A1958CA6322682E49125861
:100AA000116421682D4A0958CA64A18B31B1042907
:100AB0000BD0082910D00C291FD114E02168302355
:100AC0000A6808583432216913E0216830230A6823
:100AD0000858383221690CE0216830230A68085828
:100AE0003C32216905E0216830230A680858403209
:100AF000216900F03BFB00288AD120680068C168AA
:100B00003143C160206816490068884203D1426CB5
:100B100042F4004242642068006888420ED0B0F17E
:100B2000804F0BD00F49884208D00F49884205D02A
:100B30000E49884202D00E49884204D1816801F0F2
:100B40000701062903D0016841F0010101602581F8
:100B50000220F8BD750B0008490D00089720000819
:100B6000000001400004004000080040000C00406C
:100B700000400140F8B5046E856B616881427DD10B
:100B80002168A9427AD12189002977D0696A012692
:100B9000814205D12E77C069F8B985F83E601CE026
:100BA000A96A814206D102212977C069A8B985F8CE
:100BB0003F6012E0E96A814206D104212977C069C9
:100BC00058B985F8406008E0296B814205D10821B9
:100BD0002977C06908B985F841602089E18A002732
:100BE00088424FD28DF8007042E02189E06801EB25
:100BF0004101405C9DF800108840000601D5207E30
:100C000000E0607E9DF800202169602303EB8202F2
:100C100088502089E16800EB4000401C085C9DF88A
:100C200000108840000601D5207E00E0607E9DF81F
:100C300000202169802303EB820288502089E1682B
:100C400000EB4000801C085C9DF800108840000606
:100C500001D5207E00E0607E9DF800202169A02360
:100C600003EB820288509DF80000401C8DF80000C4
:100C70009DF800000828B8D3208900E04AE0401C15
:100C8000208146E0891C884205D2206960216030BD
:100C9000FFF72CFCF0E72781A08B30B104280BD0A4
:100CA000082838D00C280FD13CE02868C16821F40E
:100CB0000071C160686A05E02868C16821F480613C
:100CC000C160A86A00F005F91E4B41F211112868B5
:100CD0008A10984209D1036A0B4206D1036A134273
:100CE00003D1436C23F4004343642868036A0B4236
:100CF00006D1016A114203D1016821F001010160AE
:100D0000A08BB0B1042817D0082818D085F841600E
:100D100066752F77F8BD2868C16821F40061C1604D
:100D2000E86ACFE72868C16821F48051C160286B68
:100D3000C8E785F83E60EBE785F83F60E8E785F8AF
:100D40004060E5E70000014038B5046E816B6268E1
:100D5000824252D1206888424FD1208900284CD04D
:100D6000E18A88424AD200203EE02189E06801EB16
:100D70004101405C9DF800108840000601D5207EAE
:100D800000E0607E9DF80020216941F82200208962
:100D9000E16800EB4000401C085C9DF800108840B2
:100DA000000601D5207E00E0607E9DF800202169CC
:100DB000202303EB820288502089E16800EB400089
:100DC000801C085C9DF800108840000601D5207E3C
:100DD00000E0607E9DF800202169402303EB820241
:100DE00088509DF80000401C8DF800009DF8000020
:100DF0000828BAD32089401C208138BD891C88422C
:100E0000FBD260212069FFF771FBF3E7FEE70000EA
:100E1000014800F071B800002C010020014800F0EA
:100E20006BB80000C800002001681823CAB2103A4D
:100E3000B2FBF3F2054B6FF30901032A9B5CC36518
:100E400000D9091D8165084670470000C0300008C0
:100E500010B5014600208B698A6A4FF0C07453B107
:100E6000B3F5005F15D072B1012A0CD0022A0AD066
:100E7000032A09D104E01AB1012A06D0022A03D1BB
:100E8000C96AC90100D5012010BDC96AA142FAD0C2
:100E900010BD002AF7D0012AF2D0022AF3D0032A8B
:100EA000F3D010BD30B50468256825F48025256091
:100EB000046863608368402B036803D0996000680E
:100EC000C26030BD9A600068C16030BD704772B6C4
:100ED000FEE790F83510022903D0802141650120FA
:100EE0007047052180F835100068016821F0010184
:100EF00001600020704700002DE9F84304464FF0E0
:100F00000009CDF8009063484FF41651A56D0068B4
:100F1000B0FBF1F72E6894F85C10082000FA01F19C
:100F200031420FD021680A6852070BD50A6822F0B7
:100F300004020A6094F85C108840A860606D40F07C
:100F40000100606594F85C104FF0010808FA01F0A8
:100F5000304208D021684969090604D5A860606D4F
:100F600040F00200606594F85C1004208840304234
:100F700008D021680968890704D5A860606D40F031
:100F80000400606594F85C1010208840304218D04E
:100F900021680968090714D5A86020680168490319
:100FA00004D50068000308D5A16C07E00168C905F5
:100FB00003D4016821F008010160216C09B12046C9
:100FC000884794F85C1020208840304231D0216856
:100FD0000968C9062DD5A86094F835000528206851
:100FE000016806D0490347D5006800031DD4616C31
:100FF0001CE021F0160101602068416921F08001A8
:101000004161206C08B9A06C20B12068016821F012
:101010000801016094F85C103F208840A86084F8C3
:10102000358084F83490216D1FE0E16B09B12046D2
:101030008847606D00282BD0606DC00714D0052054
:1010400084F835002068016821F0010101600098F2
:10105000401C0090B84203D820680068C007F6D151
:1010600084F8358084F83490E16C002910D001B008
:101070002046BDE8F04308470168C905D5D401689A
:1010800021F01001016084F8358084F83490CCE7B9
:10109000BDE8F883140000202DE9F041044600F07B
:1010A0009FF906465CB1022084F83500002584F8DB
:1010B00034502068016821F0010101600DE0012039
:1010C000BDE8F08100F08CF9801B052805D92020AF
:1010D0006065032084F83500F2E720680068C007E7
:1010E000F0D12268116820480140D4E90103184377
:1010F000D4E903363343184363691843A36918439B
:10110000E3691843236A18430843616A042903D139
:10111000D4E90B1319430843106020684069666ADC
:1011200020F0070130460E43012704280CD1A06AA5
:101130000643E06A40B12046FFF78AFE20B1402016
:10114000606584F83570BAE7206846612046FFF78D
:101150006BFE94F85C203F2191408160656584F8C6
:1011600035700020ACE700003F8010F02DE9F04121
:101170000446866D90F83400002501280DD001202A
:1011800084F8340094F835700020012F07D084F8DB
:10119000340002252846BDE8F0810220FBE7022743
:1011A00084F8357060652046FFF77CFE94F85C108B
:1011B0003F208840B0602068016841F0160101605E
:1011C000206C20B12068016841F0080101602068AE
:1011D000016841F001010160DCE7000070B50446E0
:1011E00000F0FEF80546601C02D004480078044474
:1011F00000F0F6F8401BA042FAD370BD08000020B2
:101200002DE9F84FDFF8B8A10022012403254FF0A3
:101210000F090AF1040BAAF1040E00BF0B6804FACF
:1012200002F63340B34273D10F7907F00307012F61
:1012300001D0022F16D187684FEA420805FA08FC50
:1012400027EA0C07D1F80CC00CFA08FC4CEA070C92
:10125000C0F808C04768B7430E79C6F30016964039
:101260003E4346600E79F643B6070DD0C768560078
:1012700005FA06FC27EA0C07D1F808C00CFA06FCB0
:101280004CEA070CC0F80CC00E7906F00306022EDB
:1012900010D1D60800EB8608D8F8206057074FEA2F
:1012A000D76C09FA0CF7BE430F6907FA0CF73743FE
:1012B000C8F8207006684FEA420C05FA0CF7BE43E6
:1012C0000F7907F0030707FA0CF7374307604E68FA
:1012D00016F4403F6DD03B4E376847F48047376087
:1012E000366822F0030706F480460096364E07EB78
:1012F000060CDCF8086897073F0F09FA07F826EA9A
:101300000806DFF8C880404503D14FF000081EE012
:101310004FE0DFF8BC80404502D14FF0010816E0F5
:10132000DFF8B080404502D14FF002080FE0DFF84F
:10133000A880404502D14FF0030808E0DFF89C8008
:10134000404502D14FF0040801E04FF0070808FAC9
:1013500007F848EA0608CCF80888DAF8006057462B
:10136000D1F804C09E435FEACC2C00D51E433E60FA
:10137000DBF800605F46D1F804C09E435FEA8C2C26
:1013800000D51E433E60DEF800607746D1F804C009
:101390009E435FEA8C3C00D51E433E60084F083FE9
:1013A0003E68D1F804C09E435FEACC3C00D51E43A2
:1013B0003E60521C102AFFF431AFBDE8F88F0000E8
:1013C000083C014044380240003001400000024027
:1013D0000004024000080240000C024000100240DD
:1013E00001488068704700000800002002488168BA
:1013F0000278114481607047080000200B4810B546
:10140000016841F400710160016841F4806101608C
:10141000016841F480710160032000F073F80F202F
:1014200000F006F800F024F8002010BD003C024057
:1014300070B50D4D04464FF47A712878B1FBF0F089
:101440000A490968B1FBF0F000F010FB48B9102C14
:1014500007D200222146501E00F034F800206C60B4
:1014600070BD012070BD00000800002014000020A5
:101470000C4882B0016841F480410160006800F4CA
:10148000804000900748001F016841F080510160D2
:101490000068002200F0805000900F21901E02B0E2
:1014A00000F010B844380240002809DB00F01F02A9
:1014B000012191404009800000F1E020C0F80011B6
:1014C00070470000F0B40E4B1B680C46C3F30223B8
:1014D000C3F10705042D00D90425191D072901D2E0
:1014E000002300E0DB1E012606FA05F1491E21401B
:1014F00099409E40761E16403143F0BC00F099BEE4
:101500000CED00E0064900F0070208684FF6FF0303
:10151000184040EA0220034A104308607047000068
:101520000CED00E00000FA052DE9F0470E4605003D
:1015300065D0DFF81481D8F80000F7B200F007009A
:10154000B04207D288F80070D8F8000000F0070019
:10155000B04254D128683D4C810712D5400703D5CD
:10156000206840F4E05020602878000703D5206808
:1015700040F4604020602068A96820F0F000084333
:1015800020602878C0072DD03049686808390128C4
:1015900012D0022813D0032811D009688907002926
:1015A0002DDA216821F0030101432160FFF718FFC4
:1015B000814641F2883A0EE009688903EFE709683D
:1015C0008901ECE7FFF70CFFA0EB0901514502D9B7
:1015D0000320BDE8F0872068696800F00C00B0EBDC
:1015E000810FEFD1D8F80010404601F00701B14259
:1015F00007D90770006800F00700B04201D0012051
:10160000E7E72878400705D52068E96820F4E0502E
:10161000084320602878000706D52068296920F44F
:10162000604040EAC100206000F038F82168084AB4
:10163000C1F30311515CC8400649086006480068C0
:10164000FFF7F6FE0020C4E7003C024008380240E5
:10165000C8300008140000200C0000200448054990
:1016600000680968044AC1F38221515CC840704790
:101670001400002008380240D8300008044805490A
:1016800000680968044AC1F34231515CC8407047A0
:101690001400002008380240D8300008154810B562
:1016A000006810F00C02144813D01449042A0FD01B
:1016B000082A0ED10F4C241F2268236802F03F0233
:1016C0005B0207D52068C0F38810A0FB010106E08B
:1016D000084610BD2168C1F38811A1FB0001002359
:1016E000FEF75BFE2168C1F30141491C4900B0FBD4
:1016F000F1F010BD083802400024F40040787D016C
:101700002DE9F84F04006ED02078DFF84C93C00725
:10171000A9F104054AD009F104000168C1F381016F
:10172000012908D00068C0F3810002280AD1D9F845
:101730000000400206D52868800337D5606800287D
:10174000E1D033E06068B0F5803F10D0B0F5A02F55
:10175000286810D020F480302860286820F4802089
:1017600028606068A8B1FFF73BFE06460DE02868D8
:1017700040F48030F4E740F480202860F7E700BFB1
:10178000FFF72EFE801B642873D828688003F7D5E6
:101790000CE0FFF725FE064605E000BFFFF720FE40
:1017A000801B6428F0D828688003F7D42078DFF8FD
:1017B000AC8280074FF0000A3ED5A748001D0168A3
:1017C00011F00C0F08D00068C0F3810002280BD183
:1017D000D9F80000400207D42868800716D5E068D1
:1017E000012800D112E033E1E068B8B10120C8F867
:1017F0000000FFF7F5FD064605E000BFFFF7F0FD2E
:10180000801B0228C0D828688007F7D5286821697E
:1018100020F0F80040EAC10028600DE0C8F800A000
:10182000FFF7DEFD064604E0FFF7DAFD801B022825
:101830001FD828688007F7D42078000722D5864F64
:1018400087486169703771B101210160FFF7C8FDF8
:10185000064604E0FFF7C4FD801B022809D838685B
:101860008007F7D50EE0C0F800A0FFF7B9FD0646E7
:1018700005E082E0FFF7B4FD801B02287DD83868C0
:101880008007F7D42078400768D5DFF8CCB100276F
:101890000BF13C0BDBF80000C0000BD4DBF80010B0
:1018A00041F08051CBF80010DBF80000012700F078
:1018B000805000906B4E3068C00510D4306840F402
:1018C00080703060FFF78CFD009005E0FFF788FD29
:1018D0000099401A022850D83068C005F6D55E4EEF
:1018E000A0686C3601280FD00528306810D020F091
:1018F00001003060306820F004003060A068B8B1AA
:10190000FFF76EFD00900FE0306840F00100F4E753
:1019100040F004003060F7E7FFF762FD0099411ADC
:1019200041F28830814266D830688007F4D50EE0F5
:10193000FFF756FD009007E0FFF752FD0099411AAE
:1019400041F28830814256D830688007F4D42FB1F4
:10195000DBF8001021F08051CBF80010A069C8B36B
:101960003D49091D0968C1F3810102294AD00228B5
:10197000504607D0C8F8600000E03CE0FFF730FDBB
:1019800004463BE04746C8F86000FFF729FD0646DD
:1019900005E000BFFFF724FD801B02282BD8286834
:1019A0008001F7D4D4E907010843A16A2E4A490807
:1019B00002EB0141626A41EA8211084394F82C105B
:1019C00040EA0161C9F8001001203866FFF708FD00
:1019D000044606E03EE000BFFFF702FD001B0228C0
:1019E00009D828688001F7D534E000BFFFF7F8FC7C
:1019F000001B022802D90320BDE8F88F2868800167
:101A0000F4D427E00128F7D0D9F80000E26900F407
:101A1000800191421CD1226A00F03F01914217D10E
:101A200047F6C071626A0140B1EB821F10D1A26A11
:101A30004FF0FF3300F4403103EB5202B1EB024FA1
:101A400006D194F82C1000F07060B0EB016F01D05B
:101A50000120D1E70020CFE70438024000004742D0
:101A6000800E4742007000400000FFFF10B5401E8E
:101A7000B0F1807F01D3012010BD4FF0E024606100
:101A80000F21601700F0D5FB0020A0610720206126
:101A9000002010BD70B590F83C20012A2CD0012404
:101AA00080F83C40022280F83D2003685A689D6817
:101AB00022F070060A6832435A60104B02689A425C
:101AC0000ED0B2F1804F0BD00D4B9A4208D00D4B87
:101AD0009A4205D00C4B9A4202D00C4B9A4204D148
:101AE000496825F080031943916080F83D4000214A
:101AF00080F83C10084670BD022070BD0000014017
:101B00000004004000080040000C0040004001407C
:101B10007047000010B586B0044614216846FEF7F1
:101B2000E5FC2068B0F1804F15D10C480021026817
:101B300042F001020260006800F0010005900620FA
:101B400000901220CDE901010120CDE90310694682
:101B50000348FFF755FB06B010BD000030380240C7
:101B60000000024070B5044690F83C0000260D4687
:101B700001280FD0012084F83C006AB1042A1DD04E
:101B8000082A2FD00C2A3FD00126002084F83C00E0
:101B9000304670BD022070BD206800F0A7FA2068B2
:101BA000816941F0080181612068816921F00401A7
:101BB0008161206881692A69114311E0206800F081
:101BC000BDFA2068816941F4006181612068816902
:101BD00021F480618161206881692A6941EA0221DA
:101BE0008161D2E7206800F0D5FA2068C16941F030
:101BF0000801C1612068C16921F00401C161206848
:101C0000C1692A69114311E0206800F0EFFA2068E9
:101C1000C16941F40061C1612068C16921F480613A
:101C2000C1612068C1692A6941EA0221C161ACE74A
:101C300010B5040003D094F83D0010B107E0012076
:101C400010BD002084F83C00204600F01FF8022060
:101C500084F83D00211D206800F0BEF9012084F8C1
:101C6000460084F83E0084F83F0084F8400084F881
:101C7000410084F8420084F8430084F8440084F86A
:101C8000450084F83D00002010BD00002DE9F84F0C
:101C900005460068B0F1804F40D1214900200A6814
:101CA00042F001020A6009681F4C01F00101009135
:101CB0004FF4806B4027C4F810B0C4E902704FF4B1
:101CC000807AC4E907A0606216494FF0C066C4E993
:101CD00000164FF480584FF480492046C4E9058926
:101CE000FFF7DAF908B1FFF7F2F8AC622C63A563ED
:101CF0000C480E4C783884E8C1000020C4E9030B7E
:101D0000C4E907A060622046C4E90589FFF7C4F969
:101D100008B1FFF7DCF8EC622C62A563BDE8F88F30
:101D200040380240A0600240C80000202C01002082
:101D3000FEE7000010B58AB0002407941C21684615
:101D40000894FEF7D3FB19484FF08041C0E9001416
:101D5000611EC0E9024104618461FFF769FF08B1B7
:101D600072B6FEE7079407A910480894FFF792FEA1
:101D700008B172B6FEE76020CDE9000402940422A7
:101D800069460A480494FFF7EDFE08B172B6FEE713
:101D9000082269460548FFF7E5FE08B172B6FEE77E
:101DA0000248FFF7B7FE0AB010BD00008000002017
:101DB000FEE7FEE72A4800F5887400F14805C4E90B
:101DC000000500202081FF20207501206075102073
:101DD000E0820220A0760420A0833020FEF7AEFA35
:101DE000E060C020FEF7AAFA206120462C66FEF7CC
:101DF000E9FC14212046FEF74BFD4FF4FA74194814
:101E0000FEF7C0FC1748FEF771FD0028FAD0142336
:101E10001A46C8211348FEF7BAFC1248FEF766FDC1
:101E20000028FAD02046FFF7D9F90E48FEF7AAFCA1
:101E30000C48FEF75BFD0028FAD01423C82219468F
:101E40000848FEF7A4FC0748FEF750FD0028FAD02A
:101E50002046FFF7C3F9012000F05AFACFE700004F
:101E600080000020900100202A4800F5987400F1BD
:101E7000AC05C4E9000500202081FF202075012069
:101E800060751020E0820220A0760820A083302018
:101E9000FEF754FAE060C020FEF750FA20612046B9
:101EA000FEF790FC14212046FEF7F2FC2C664FF45E
:101EB000FA741948FEF766FC1748FEF717FD00286C
:101EC000FAD01423C82219461348FEF760FC1248C2
:101ED000FEF70CFD0028FAD02046FFF77FF90E48E8
:101EE000FEF750FC0C48FEF701FD0028FAD0142341
:101EF0001A46C8210848FEF74AFC0748FEF7F6FCD8
:101F00000028FAD02046FFF769F9012000F000FA16
:101F1000CFE7000080000020B001002010B5FFF7DF
:101F200065FA00F097FE012803D0BDE8104000F0EC
:101F300023BE10BD30B593B030216846FEF7D6FA07
:101F400014210CA8FEF7D2FA1D480024016841F0C4
:101F500080510160006800F08050119019480168BC
:101F600021F4404141F4004101600068022500F481
:101F70004040119001200390102004900095069598
:101F80000820CDE907404020CDE9090504200B9049
:101F90006846FFF7B5FB08B172B6FEE70F20CDE942
:101FA0000C058020CDE90E0401210CA81094FFF748
:101FB000BBFA002801D072B6FEE713B030BD0000B6
:101FC00040380240007000400248016841F470014E
:101FD0000160704788ED00E0F0B50268204B214CAD
:101FE0009F03214D214E984207D0B84205D0A04210
:101FF00003D0A84201D0B04204D122F0700C4A684C
:1020000042EA0C02984210D0B8420ED0A0420CD046
:10201000A8420AD0B04208D0154CA04205D0154CB9
:10202000A04202D0144CA04203D122F44074CA68EA
:1020300022434C6922F08002224302608A68C26215
:102040000A688262984201D10969016301214161F4
:102050000169C90703D0016921F001010161F0BDE7
:10206000000001400004004000080040000C004057
:1020700000400140004401400048014010B501F01B
:102080001F030121046A99408C430462016A9A404B
:102090001143016210BD10B5846B0121626A824256
:1020A00003D1217784F83E1019E0A26A824204D15C
:1020B0000220207784F83F1011E0E26A824204D1C6
:1020C0000420207784F8401009E0226B824204D17A
:1020D0000820207784F8411001E084F83D10204664
:1020E000FFF716FD0020207710BD000030B5036A11
:1020F000026A22F0010202624268846924F07305D8
:102100000C682C4323F002058B682B430A4DA84230
:102110000BD123F00805CB6822F440722B434D69A4
:1021200023F0040315438A692A43426084614968A5
:102130004163036230BD00000000014030B5026A17
:10214000036A23F010030362436884690D6824F472
:10215000E64444EA05248D6822F0200242EA051292
:102160000B4DA8420ED1CD6822F0800242EA051242
:102170004D6923F4406343EA85038D6922F04002F0
:1021800043EA85034360846149688163026230BD2C
:102190000000014030B5036A026A22F480720262D4
:1021A0004268C46923F4007324F073050C682C435F
:1021B0008D6843EA05230C4DA8420ED1CD6823F467
:1021C000006343EA05234D6922F4405242EA0512B6
:1021D0008D6923F4806342EA05124260C461496854
:1021E000C163036230BD00000000014030B5046AE5
:1021F000026A22F4805202624268C3690D6823F4C5
:10220000E64343EA05238D6824F4005444EA053488
:10221000064DA84204D14D6922F4804242EA85125B
:102220004260C36149680164046230BD000001403E
:10223000FEE70907090E002804DB00F1E02080F822
:102240000014704700F00F0000F1E02080F8141D2A
:102250007047000090B0FFF7D1F8FFF76BFE2648FB
:10226000016841F004010160016801F004010E9170
:10227000016841F080010160016801F080010E9168
:10228000016841F001010160016801F001010E9156
:10229000016841F4001101600068002200F40010A0
:1022A0000E9005210C20FFF70DF90C20FFF7FCF82C
:1022B000002205211120FFF705F91120FFF7F4F89E
:1022C000FFF738FD1C220D496846FEF7DDF80021B6
:1022D000684600F029F80A4C08491C2220601C318D
:1022E00007A8FEF7D1F8002107A800F01DF86060EC
:1022F00000F015F8FEE70000303802408830000892
:102300000000002001460020842900D0C81C70472E
:1023100010B500B9012000F023FB002010BD10B55E
:1023200000F044FB002010BD7FB50D460446416916
:10233000B0F9080081B1A16971B1FFF7E3FFD4E9F9
:1023400005128DE80700D4E900102B46226900F041
:1023500056FC039004B070BDFFF7D4FF03A9CDE98C
:102360000001208A2B4682B2D4E9001000F01AFC4A
:10237000012801D00020EDE70398EBE72DE9F041BB
:10238000184C0F460546E6682068001D00F020FA4C
:1023900038B9206890F82C100120884021698143C9
:1023A0002161681C07D137B12168BDE8F0410E48B2
:1023B000091D00F051BA20683544B54245602168D6
:1023C00005D2A06BBDE8F041091D00F02DBA606B8D
:1023D000091D00F029FAA06A854200D2A562BDE875
:1023E000F081000018000020000500202DE9F041D8
:1023F000054600F03DFA2E4CA068401CA060206805
:102400002C4F10B1606940B32DE02560A068012811
:1024100029D1002606EB860007EB800000F0F6F9D4
:10242000761C072EF6D323488C3000F0EFF92148B4
:10243000A03000F0EBF91F48B43000F0E7F91D4878
:10244000C83000F0E3F91B48DC3000F0DFF9194830
:102450008C3060631430A06305E02068E96AC06ACC
:10246000884200D82560606A401C6062E96A0120E9
:10247000226988401043206101EB810007EB800056
:10248000291D00F0E9F900F013FA606900280CD06A
:102490002068E96AC06A884207D207494FF0805035
:1024A0000860BFF34F8FBFF36F8FBDE8F08100006E
:1024B000180000202404002004ED00E010B50446BC
:1024C00090F8510058B101280CD002280FD05020AC
:1024D00080F31188BFF34F8FBFF36F8FFEE7206B40
:1024E00000F0FAF92046BDE8104000F0F5B910BD43
:1024F00010484FF47051420706D0C01D0D4920F01E
:102500000700411AC1F570510B4A00230144C2E98A
:1025100000030839183A21F0070111604B600B6085
:102520000B1AC0E9001393604FF0004053605061F4
:1025300070470000140500206C000020144E154C5C
:10254000A6F1C8074FF08058DFF84C9012E000BFAA
:1025500000F08EF9F068C568281D00F039F9A06810
:10256000401EA0606068401E606000F0A1F928462F
:10257000FFF7A4FF60680028EAD138680128F9D97C
:10258000C9F80080BFF34F8FBFF36F8FF2E70000F1
:10259000EC0400201800002004ED00E02DE9F047D5
:1025A0009A46DDE9098481466FF00303206B03EB53
:1025B00082021044089E20F00707780707D05020B9
:1025C00080F31188BFF34F8FBFF36F8FFEE70025B5
:1025D00061B1002023180A5C83F834200A5C12B130
:1025E000401C1028F6D384F8435001E084F834509E
:1025F000072E00D30626E662C4E91165201D00F00F
:1026000010F904F1180000F00CF92461C6F107007C
:102610006462A061E56484F85050524649463846E9
:1026200000F0C0F82060B8F1000F01D0C8F80040F9
:10263000BDE8F08730B5114900E011460A688242D2
:10264000FBD34B685C18844203D14068184448604F
:10265000084643681C18944209D1084C183C246869
:10266000A24209D052681A4442600A6812680260A5
:10267000814200D0086030BD0460F9E76C000020A2
:102680000648416B096829B1416BC968C968496846
:10269000816270474FF0FF31FAE700001800002018
:1026A00008484068401C4FF0500080F3118804D067
:1026B000BFF34F8FBFF36F8FFEE7BFF34F8FBFF3B3
:1026C0006F8FFEE7740000202DE9F04105460027DA
:1026D00000F0A2F9324E306808B9FFF709FF7069BF
:1026E00005424ED1C5B3083568070ED005F0070086
:1026F000C0F108000544680707D0502080F3118816
:10270000BFF34F8FBFF36F8FFEE72DB37068854225
:1027100037D82348183001460C6801E020460C46A3
:102720006168A94202D221680029F7D131688C4240
:1027300027D007682168016060680837411B1029AD
:102740000FD96019420708D0502080F31188BFF3D9
:102750004F8FBFF36F8FFEE713E041606560FFF7B7
:1027600069FF61687068401A7060B268904200D278
:10277000B060706901430020C4E90001F068401CAA
:10278000F06000F0DBFA780707D0502080F3118862
:10279000BFF34F8FBFF36F8FFEE73846BDE8F08180
:1027A0005400002010B5031F4FF080741C601B1FE5
:1027B00021F001011960191F044B0B6014390A60E4
:1027C000091F6FF0020244380A6010BDA1260008FC
:1027D000D0E9013201699A60D0E901235A604A6860
:1027E000824201D182684A60002202610868401E6C
:1027F0000860086870470000034B036003F1540051
:102800000860802010607047D001002000F10801AE
:102810004FF0FF32C0E90112C16001610021016087
:10282000704700210161704730B50B685A1C02D017
:1028300000F1080202E0026904E0224654682568BB
:102840009D42FAD953684B6099608A605160086173
:102850000168491C016030BD42684A6093688B6022
:1028600093685960916008610168491C0160704774
:10287000502080F31188BFF34F8FBFF36F8F0A4949
:102880004868401C486001280CD10848006810F0D6
:10289000FF0F07D0502080F31188BFF34F8FBFF395
:1028A0006F8FFEE7704700007400002004ED00E029
:1028B0000849486828B1401E486001D180F311885A
:1028C0007047502080F31188BFF34F8FBFF36F8F95
:1028D000FEE700007400002070B500282AD0164DD5
:1028E000A0F1080460686969084207D1502080F3AC
:1028F0001188BFF34F8FBFF36F8FFEE722683AB1A5
:10290000502080F31188BFF34F8FBFF36F8FFEE726
:102910008843606000F080F8606869680844686017
:102920002046FFF787FE2869401C2861BDE87040FB
:1029300000F004BA70BD0000540000204FF0E02009
:1029400000210161816105494FF47A720968B1FB88
:10295000F2F1491E41610721016170471400002016
:1029600010B5020014D00F48006B38B1502080F32E
:102970001188BFF34F8FBFF36F8FFEE700F04CF865
:1029800000211046FFF7FAFC00F0D8F9002807D123
:1029900005494FF080500860BFF34F8FBFF36F8F32
:1029A00010BD00001800002004ED00E010B586B056
:1029B0000024039405AA04A903A80494FFF71CFFAC
:1029C000DDE903010094CDE9011000230EA11048B8
:1029D000059A00F014F90F490028C86211D0502060
:1029E00080F31188BFF34F8FBFF36F8F4FF0FF302D
:1029F000886201204861CC6006B0BDE8104000F05C
:102A000041B806B010BD000049444C45000000002C
:102A10003D250008180000200248016B491C016395
:102A200070470000180000201448016B11B101210B
:102A3000C16170470021C1610169B1FA81F1C1F141
:102A40001F0101EB81020E4951F822306BB101EBFD
:102A5000820101F108034A6852684A609A4201D132
:102A600052684A60D16801607047502080F3118835
:102A7000BFF34F8FBFF36F8FFEE7000018000020F9
:102A8000240400201CB537480168374A914207D119
:102A9000502080F31188BFF34F8FBFF36F8FFEE795
:102AA00000683149491E884207D1502080F31188BF
:102AB000BFF34F8FBFF36F8FFEE72C49087801906B
:102AC000FF20087008788DF800009DF800009DF840
:102AD000002000F0F000904207D0502080F31188D1
:102AE000BFF34F8FBFF36F8FFEE79DF80000204CC0
:102AF00000F0500020700720A06005E09DF8002045
:102B000052008DF80020401E9DF800201206F5D4DA
:102B1000A060032807D0502080F31188BFF34F8FA7
:102B2000BFF36F8FFEE74FF44070A060019808700C
:102B30000C482030016841F470010160016841F0E7
:102B400070410160FFF7FAFE00206060FDF79AFB1C
:102B50000848016841F040410160FDF77FFB00201B
:102B60001CBD000000ED00E071C20F4100E400E078
:102B70007400002034EF00E010B5502080F311887D
:102B8000BFF34F8FBFF36F8F00F072F818B1044995
:102B90004FF080500860002080F3118810BD0000C5
:102BA00004ED00E02DE9FF5F8346DDE90E879946DD
:102BB00016468A469000FFF787FD05001CD054207A
:102BC000FFF782FD040014D00020256384F8510033
:102BD000CDE90240CDE900874B4632465146584682
:102BE000FFF7DCFC2046FFF701FC012004B0BDE844
:102BF000F09F2846FFF770FE4FF0FF30F6E7F0B584
:102C000085B0DDE90B640A9DA6B1DCB154270097BD
:102C10002663022684F85160002604AFCDE90246FF
:102C2000CDE90057FFF7BAFC2046FFF7DFFB049819
:102C300005B0F0BD502080F31188BFF34F8FBFF374
:102C40006F8FFEE7502080F31188BFF34F8FBFF3E3
:102C50006F8FFEE70548416919B1006B18B100207C
:102C600070470120704702207047000018000020C4
:102C70002DE9F0412F4C0026206B28B1A069401CA3
:102C8000A0613046BDE8F081E5686D1CE56013D1B8
:102C9000606B006838B1502080F31188BFF34F8F0C
:102CA000BFF36F8FFEE7606BA16B6163A063206A67
:102CB000401C2062FFF7E4FCA06ADFF87C808542BC
:102CC00009D3606B0068A0B1606BC068C7687868A2
:102CD000854211D2A0622068C06A00EB800158F8DA
:102CE0002100012800D90126E0690028C9D0012669
:102CF000C7E74FF0FF30EDE7381DFFF769FDB86A11
:102D000018B107F11800FFF763FDF96A0120226985
:102D100088401043206101EB810108EB8100391DDF
:102D2000FFF79AFDF86A2168C96A8842C9D301266B
:102D3000C7E7000018000020240400202DE9F04718
:102D40002C4D00242746286B38B1FFF791FD286BE6
:102D5000401E2863286B40B146E0502080F3118864
:102D6000BFF34F8FBFF36F8FFEE7A968224E01209C
:102D7000D1B3A6F1B40980463068E8B1F068C46800
:102D800004F11800FFF724FD201DFFF721FDE06A84
:102D90002A6908FA00F11143296100EB800109EB6F
:102DA0008100211DFFF758FDE06A2968C96A884241
:102DB000E2D3C5F81C80DFE70CB1FFF761FCAC691A
:102DC00044B14646FFF754FF00B1EE61641EF9D1ED
:102DD0000020A861E86938B1084901273807086070
:102DE000BFF34F8FBFF36F8FFFF762FD3846BDE82B
:102DF000F087000018000020D804002004ED00E057
:102E00004FEA1153A3F58063D3F11E03A8BFD3F19A
:102E1000200C08DB4FF0004242EAC12252EA505235
:102E200032FA03F0704709420BD4102BC4BF0020C4
:102E3000704703F5787CBCF1FF3F05D04FF0FF30C1
:102E400070474FF00000704770B500F0C3F800BF46
:102E50004992248000207047F0E7B0FA80F310FA1E
:102E600003F10AD0C3F11D0303F580634FEA41501B
:102E70004FEA035202EBD12170474FF00000704738
:102E8000DFF848C170B51CEA111E1EBF1CEA1315FD
:102E90009EEA0C0F95EA0C0F00F06F8081EA0304A4
:102EA00023EA4C134EEAD47E21EA4C1141F48011FE
:102EB00043F48013AE44A1FB024CA0FB0365AEF1CA
:102EC0007F7E361955EB0C05A1FB034C4CF100033A
:102ED000A0FB021C16EB0C06654153F100030942EE
:102EE00018BF46F0010613F4007F0BD14FEA0331FF
:102EF0004FEA0530340341EA155140EA16506FF0AD
:102F000003020AE04FEAC3214FEAC520F40241EA76
:102F1000555140EA56506FF0020202EB2E4201EB8F
:102F2000025585EACE710AD05FEA440C18BF24F03E
:102F3000004450F1000041F1000120EAD47040F259
:102F4000FE7C624500D270BDA84214BF4FF08044A1
:102F50004FF04044002E08BF0024BEF1806FA8BF90
:102F6000A1F1C041BDE8704080F282804FF00000C6
:102F700001F1C04101F0004170479EEA0C0F0CEADC
:102F8000131518BF95EA0C0F06D04FF0000081EA28
:102F9000030E0EF0004170BD00F01CF88900013EE8
:102FA00000F007B800F009B84FEA430C5FEA5C5C38
:102FB00008D081EA030100F05BB84FEA410C5FEAF8
:102FC0005C5CF6D14FF00000014970470000FF073C
:102FD0000000F87F0EF1020E2EF0030E5EF8046B77
:102FE000364205D4012A43EB030515F5001F12D81C
:102FF000012841EB010C1CF5001F0CD80ED14FEA43
:10300000D17C15F5001F0CEB4C0C0CF1020C08BF29
:103010004CEBD37C04E04FF0080C01E04FEAD37C8A
:103020000CEB4C0526FA05F606F00706B6F1040C83
:1030300006D20EEB860CBDE870404CF0010C6047E8
:10304000DFE80CF0090B02024FF000414FF00000E6
:10305000A1F5002170BD19461046012851EB01046D
:1030600018BFD4F5001484BF002001F0004170BDEA
:103070000808A0F500114FEA310170474FF0407089
:10308000E1EE100A70470000EC300008B51D0008A2
:10309000000000000000000000010000000000002F
:1030A00000000000E0300008691E00080000000079
:1030B000000000000001000000000000000000000F
:1030C00000061016000610160000000000000000A8
:1030D00001020304060708090000000001020304BE
:1030E0006D795461736B3032000000006465666175
:1030F000756C745461736B00183100080000002077
:1031000080000000D00100089831000880000020F5
:10311000F8550000EC01000800000000000000006D
:103120000100000010000000000000000024F40076
:10313000000000000000000000000000000000008F
:10314000000000000000000000000000000000007F
:10315000000000000000000000000000000000006F
:10316000000000000000000000000000000000005F
:10317000000000000000000000000000000000004F
:10318000000000000000000000000000000000003F
:08319000AAAAAAAA000000008F
:040000050800019559
:00000001FF
